:100000000C945C000C9431020C940A020C9479005C
:100010000C9479000C9479000C9479000C9479007C
:100020000C9479000C9479000C9479000C9479006C
:100030000C9479000C9479000C9479000C9479005C
:100040000C94C0010C9479000C9479000C94790004
:100050000C9479000C9479000C9479000C9479003C
:100060000C9479000C947900000000002400270013
:100070002A0000000000250028002B0004040404CE
:100080000404040402020202020203030303030342
:10009000010204081020408001020408102001021F
:1000A00004081020000000080002010000030407FB
:1000B000000000000000000011241FBECFEFD8E0B8
:1000C000DEBFCDBF11E0A0E0B1E0ECE3F6E002C09E
:1000D00005900D92AE30B107D9F721E0AEE0B1E066
:1000E00001C01D92A931B207E1F70E9458020C9499
:1000F0001C030C94000090E0FC01EC55FF4F249190
:10010000FC01E057FF4F3491FC01E458FF4FE491AC
:10011000EE2309F43CC0222339F1233091F038F466
:100120002130A9F0223001F584B58F7D12C027302F
:1001300091F02830A1F02430B9F4809180008F7DB7
:1001400003C0809180008F77809380000DC084B5BC
:100150008F7784BD09C08091B0008F7703C08091F4
:10016000B0008F7D8093B000F0E0EE0FFF1FEE58DF
:10017000FF4FA591B4919FB7F894611104C08C9181
:100180003095382302C0EC913E2B3C939FBF0895DD
:10019000CF93DF9390E0FC01E057FF4F2491FC01E7
:1001A000E458FF4F8491882361F190E0880F991FF4
:1001B000FC01E859FF4FC591D491FC01EE58FF4F67
:1001C000A591B491611109C09FB7F89488812095D9
:1001D00082238883EC912E230BC0623061F49FB799
:1001E000F8948881322F309583238883EC912E2BCD
:1001F0002C939FBF06C08FB7F894E8812E2B2883DD
:100200008FBFDF91CF9108953FB7F894809115018A
:1002100090911601A0911701B091180126B5A89BE5
:1002200005C02F3F19F00196A11DB11D3FBFBA2F88
:10023000A92F982F8827820F911DA11DB11DBC01E8
:10024000CD0142E0660F771F881F991F4A95D1F7AD
:1002500008958F929F92AF92BF92CF92DF92EF92CA
:10026000FF920E9404014B015C018AE0C82ED12C50
:10027000E12CF12C0E940401DC01CB0188199909C1
:10028000AA09BB09883E9340A105B10598F321E076
:10029000C21AD108E108F10888EE880E83E0981EA2
:1002A000A11CB11CC114D104E104F10419F7FF90A1
:1002B000EF90DF90CF90BF90AF909F908F90089578
:1002C00080910E0190910F01019663E670E00E940B
:1002D000F40290930F0180930E0108950895CF9337
:1002E000DF93D62FE82FF0E0EC5FFE4FC08188E06F
:1002F0000E947B0061E0D11160E089E00E947B00F8
:100300006C2F617087E00E947B00D0E0BE01759584
:100310006795617086E00E947B00BE0175956795C8
:1003200075956795617085E00E947B00BE0123E0B2
:10033000759567952A95E1F7617084E00E947B00CE
:10034000BE0134E0759567953A95E1F7617082E0FA
:100350000E947B00BE0145E0759567954A95E1F7DF
:10036000617081E00E947B0056E0D595C7955A9553
:10037000E1F76C2F617080E0DF91CF910C947B00EE
:100380001F920F920FB60F9211242F933F938F93CA
:100390009F93AF93BF938091110190911201A0910F
:1003A0001301B09114013091100123E0230F2D3778
:1003B00020F40196A11DB11D05C026E8230F029669
:1003C000A11DB11D20931001809311019093120182
:1003D000A0931301B093140180911501909116011F
:1003E000A0911701B09118010196A11DB11D809334
:1003F000150190931601A0931701B0931801BF91B6
:10040000AF919F918F913F912F910F900FBE0F90C1
:100410001F9018951F920F920FB60F9211242F93D1
:100420003F934F935F936F937F938F939F93AF937C
:10043000BF93EF93FF93E0910201F09103010995BF
:10044000FF91EF91BF91AF919F918F917F916F91AC
:100450005F914F913F912F910F900FBE0F901F9082
:1004600018951F920F920FB60F9211242F933F935E
:100470004F935F936F937F938F939F93AF93BF93AC
:10048000EF93FF93E0910001F09101010995FF9135
:10049000EF91BF91AF919F918F917F916F915F91FC
:1004A0004F913F912F910F900FBE0F901F90189575
:1004B000789484B5826084BD84B5816084BD85B53F
:1004C000826085BD85B5816085BD80916E0081604B
:1004D00080936E00109281008091810082608093F1
:1004E00081008091810081608093810080918000F3
:1004F0008160809380008091B10084608093B1001E
:100500008091B00081608093B00080917A00846017
:1005100080937A0080917A00826080937A00809143
:100520007A00816080937A0080917A00806880935D
:100530007A001092C10061E087E00E94C80061E08B
:1005400086E00E94C80061E085E00E94C80061E08A
:1005500084E00E94C80061E082E00E94C80061E07F
:1005600081E00E94C80061E080E00E94C80061E074
:1005700088E00E94C80061E089E00E94C80062E053
:1005800083E00E94C80080E691E09093030180938D
:10059000020180916900837F886080936900E99AF5
:1005A0000AE010E080E0E82E80E0F82E80910E0155
:1005B00090910F01B8010E94F402C62FD62F8A3005
:1005C00018F460E00E946F010E942901DA3020F4E3
:1005D00061E08C2F0E946F010E942901E114F10457
:1005E00029F30E940000E2CF97FB072E16F4009437
:1005F00007D077FD09D00E94080307FC05D03EF420
:10060000909581959F4F0895709561957F4F0895BE
:10061000AA1BBB1B51E107C0AA1FBB1FA617B70728
:1006200010F0A61BB70B881F991F5A95A9F7809544
:0C0630009095BC01CD010895F894FFCF17
:0E063C006E016E013F065B4F666D7D077F6F9E
:107E0000112484B714BE81FFF0D085E080938100F7
:107E100082E08093C00088E18093C10086E0809377
:107E2000C20080E18093C4008EE0C9D0259A86E02C
:107E300020E33CEF91E0309385002093840096BBD3
:107E4000B09BFECF1D9AA8958150A9F7CC24DD24C4
:107E500088248394B5E0AB2EA1E19A2EF3E0BF2EE7
:107E6000A2D0813461F49FD0082FAFD0023811F036
:107E7000013811F484E001C083E08DD089C08234E0
:107E800011F484E103C0853419F485E0A6D080C0E4
:107E9000853579F488D0E82EFF2485D0082F10E0AE
:107EA000102F00270E291F29000F111F8ED06801E7
:107EB0006FC0863521F484E090D080E0DECF843638
:107EC00009F040C070D06FD0082F6DD080E0C81688
:107ED00080E7D80618F4F601B7BEE895C0E0D1E017
:107EE00062D089930C17E1F7F0E0CF16F0E7DF06D8
:107EF00018F0F601B7BEE89568D007B600FCFDCFD4
:107F0000A601A0E0B1E02C9130E011968C91119780
:107F100090E0982F8827822B932B1296FA010C0160
:107F200087BEE89511244E5F5F4FF1E0A038BF0790
:107F300051F7F601A7BEE89507B600FCFDCF97BE46
:107F4000E89526C08437B1F42ED02DD0F82E2BD052
:107F50003CD0F601EF2C8F010F5F1F4F84911BD097
:107F6000EA94F801C1F70894C11CD11CFA94CF0C13
:107F7000D11C0EC0853739F428D08EE10CD085E9AC
:107F80000AD08FE07ACF813511F488E018D01DD067
:107F900080E101D065CF982F8091C00085FFFCCF94
:107FA0009093C60008958091C00087FFFCCF809118
:107FB000C00084FD01C0A8958091C6000895E0E648
:107FC000F0E098E1908380830895EDDF803219F02E
:107FD00088E0F5DFFFCF84E1DECF1F93182FE3DFCA
:107FE0001150E9F7F2DF1F91089580E0E8DFEE27F6
:047FF000FF270994CA
:027FFE00040479
:0400000300007E007B
:00000001FF
